{
  "contractName": "eTaya",
  "abi": [
    {
      "constant": true,
      "inputs": [
        {
          "name": "",
          "type": "uint256"
        }
      ],
      "name": "WinnersDB",
      "outputs": [
        {
          "name": "prize",
          "type": "uint256"
        },
        {
          "name": "isExisting",
          "type": "bool"
        }
      ],
      "payable": false,
      "stateMutability": "view",
      "type": "function"
    },
    {
      "constant": true,
      "inputs": [],
      "name": "verifier",
      "outputs": [
        {
          "name": "",
          "type": "address"
        }
      ],
      "payable": false,
      "stateMutability": "view",
      "type": "function"
    },
    {
      "constant": true,
      "inputs": [
        {
          "name": "",
          "type": "uint256"
        }
      ],
      "name": "winningDates",
      "outputs": [
        {
          "name": "",
          "type": "uint256"
        }
      ],
      "payable": false,
      "stateMutability": "view",
      "type": "function"
    },
    {
      "constant": true,
      "inputs": [],
      "name": "owner",
      "outputs": [
        {
          "name": "",
          "type": "address"
        }
      ],
      "payable": false,
      "stateMutability": "view",
      "type": "function"
    },
    {
      "constant": true,
      "inputs": [
        {
          "name": "",
          "type": "bytes32"
        }
      ],
      "name": "BetsDB",
      "outputs": [
        {
          "name": "isExisting",
          "type": "bool"
        },
        {
          "name": "isClaimed",
          "type": "bool"
        }
      ],
      "payable": false,
      "stateMutability": "view",
      "type": "function"
    },
    {
      "inputs": [],
      "payable": false,
      "stateMutability": "nonpayable",
      "type": "constructor"
    },
    {
      "anonymous": false,
      "inputs": [
        {
          "indexed": false,
          "name": "isExisting",
          "type": "bool"
        }
      ],
      "name": "BetExisting",
      "type": "event"
    },
    {
      "anonymous": false,
      "inputs": [
        {
          "indexed": false,
          "name": "isClaimed",
          "type": "bool"
        }
      ],
      "name": "Claimed",
      "type": "event"
    },
    {
      "anonymous": false,
      "inputs": [
        {
          "indexed": true,
          "name": "_drawdate",
          "type": "uint256"
        },
        {
          "indexed": false,
          "name": "_winners",
          "type": "uint8[6]"
        },
        {
          "indexed": false,
          "name": "_prize",
          "type": "uint256"
        }
      ],
      "name": "WinnersPosted",
      "type": "event"
    },
    {
      "constant": false,
      "inputs": [
        {
          "name": "_verifier",
          "type": "address"
        }
      ],
      "name": "changeVerifier",
      "outputs": [],
      "payable": false,
      "stateMutability": "nonpayable",
      "type": "function"
    },
    {
      "constant": false,
      "inputs": [
        {
          "name": "_owner",
          "type": "address"
        }
      ],
      "name": "changeOwner",
      "outputs": [],
      "payable": false,
      "stateMutability": "nonpayable",
      "type": "function"
    },
    {
      "constant": true,
      "inputs": [
        {
          "name": "_txnHash",
          "type": "bytes32"
        }
      ],
      "name": "getBetStatus",
      "outputs": [
        {
          "name": "",
          "type": "bool"
        },
        {
          "name": "",
          "type": "bool"
        }
      ],
      "payable": false,
      "stateMutability": "view",
      "type": "function"
    },
    {
      "constant": false,
      "inputs": [
        {
          "name": "_txnHash",
          "type": "bytes32"
        }
      ],
      "name": "newBet",
      "outputs": [
        {
          "name": "",
          "type": "bytes32"
        }
      ],
      "payable": false,
      "stateMutability": "nonpayable",
      "type": "function"
    },
    {
      "constant": false,
      "inputs": [
        {
          "name": "_txnHash",
          "type": "bytes32"
        }
      ],
      "name": "verifyClaim",
      "outputs": [],
      "payable": false,
      "stateMutability": "nonpayable",
      "type": "function"
    },
    {
      "constant": false,
      "inputs": [
        {
          "name": "_txnHash",
          "type": "bytes32"
        }
      ],
      "name": "claimedWinnings",
      "outputs": [],
      "payable": false,
      "stateMutability": "nonpayable",
      "type": "function"
    },
    {
      "constant": true,
      "inputs": [],
      "name": "getLength",
      "outputs": [
        {
          "name": "",
          "type": "uint256"
        },
        {
          "name": "",
          "type": "uint256[]"
        }
      ],
      "payable": false,
      "stateMutability": "view",
      "type": "function"
    },
    {
      "constant": false,
      "inputs": [
        {
          "name": "_drawdate",
          "type": "uint256"
        },
        {
          "name": "_winners",
          "type": "uint8[6]"
        },
        {
          "name": "_prize",
          "type": "uint256"
        }
      ],
      "name": "postWinners",
      "outputs": [],
      "payable": false,
      "stateMutability": "nonpayable",
      "type": "function"
    },
    {
      "constant": true,
      "inputs": [
        {
          "name": "_drawdate",
          "type": "uint256"
        }
      ],
      "name": "getWinners",
      "outputs": [
        {
          "name": "",
          "type": "uint256"
        },
        {
          "name": "",
          "type": "uint8[6]"
        },
        {
          "name": "",
          "type": "uint256"
        }
      ],
      "payable": false,
      "stateMutability": "view",
      "type": "function"
    }
  ],
  "bytecode": "0x60806040523480156200001157600080fd5b50336000806101000a81548173ffffffffffffffffffffffffffffffffffffffff021916908373ffffffffffffffffffffffffffffffffffffffff16021790555033600160006101000a81548173ffffffffffffffffffffffffffffffffffffffff021916908373ffffffffffffffffffffffffffffffffffffffff16021790555060606040519081016040528060c060405190810160405280600160ff168152602001600260ff168152602001600360ff168152602001600460ff168152602001600560ff168152602001600660ff1681525081526020016283f6c7815260200160011515815250600360006301343aa581526020019081526020016000206000820151816000019060066200012a9291906200018e565b506020820151816001015560408201518160020160006101000a81548160ff02191690831515021790555090505060046301343aa5908060018154018082558091505090600182039060005260206000200160009091929091909150555062000262565b826006601f016020900481019282156200021c5791602002820160005b83821115620001eb57835183826101000a81548160ff021916908360ff1602179055509260200192600101602081600001049283019260010302620001ab565b80156200021a5782816101000a81549060ff0219169055600101602081600001049283019260010302620001eb565b505b5090506200022b91906200022f565b5090565b6200025f91905b808211156200025b57600081816101000a81549060ff02191690555060010162000236565b5090565b90565b61115880620002726000396000f3fe6080604052600436106100d0576000357c0100000000000000000000000000000000000000000000000000000000900463ffffffff168063034e5465146100d55780632b7ac3f31461012f57806335b735101461018657806358dbe0ff146101c15780636b1426a414610210578063805cbb02146102955780638da5cb5b146102e45780639f3173f31461033b578063a3c389271461038b578063a6f9dae1146103e9578063be1c766b1461043a578063cf04fb94146104ad578063e880a4ff146104fe578063fbb195ef1461055c575b600080fd5b3480156100e157600080fd5b5061010e600480360360208110156100f857600080fd5b8101908080359060200190929190505050610597565b60405180838152602001821515151581526020019250505060405180910390f35b34801561013b57600080fd5b506101446105c8565b604051808273ffffffffffffffffffffffffffffffffffffffff1673ffffffffffffffffffffffffffffffffffffffff16815260200191505060405180910390f35b34801561019257600080fd5b506101bf600480360360208110156101a957600080fd5b81019080803590602001909291905050506105ee565b005b3480156101cd57600080fd5b506101fa600480360360208110156101e457600080fd5b810190808035906020019092919050505061064f565b6040518082815260200191505060405180910390f35b34801561021c57600080fd5b506102496004803603602081101561023357600080fd5b8101908080359060200190929190505050610672565b6040518084815260200183600660200280838360005b8381101561027a57808201518184015260208101905061025f565b50505050905001828152602001935050505060405180910390f35b3480156102a157600080fd5b506102ce600480360360208110156102b857600080fd5b81019080803590602001909291905050506107dc565b6040518082815260200191505060405180910390f35b3480156102f057600080fd5b506102f961093b565b604051808273ffffffffffffffffffffffffffffffffffffffff1673ffffffffffffffffffffffffffffffffffffffff16815260200191505060405180910390f35b34801561034757600080fd5b50610389600480360361010081101561035f57600080fd5b81019080803590602001909291908060c00190919291929080359060200190929190505050610960565b005b34801561039757600080fd5b506103c4600480360360208110156103ae57600080fd5b8101908080359060200190929190505050610b51565b6040518083151515158152602001821515151581526020019250505060405180910390f35b3480156103f557600080fd5b506104386004803603602081101561040c57600080fd5b81019080803573ffffffffffffffffffffffffffffffffffffffff169060200190929190505050610b8f565b005b34801561044657600080fd5b5061044f610c2d565b6040518083815260200180602001828103825283818151815260200191508051906020019060200280838360005b8381101561049857808201518184015260208101905061047d565b50505050905001935050505060405180910390f35b3480156104b957600080fd5b506104fc600480360360208110156104d057600080fd5b81019080803573ffffffffffffffffffffffffffffffffffffffff169060200190929190505050610c93565b005b34801561050a57600080fd5b506105376004803603602081101561052157600080fd5b8101908080359060200190929190505050610d33565b6040518083151515158152602001821515151581526020019250505060405180910390f35b34801561056857600080fd5b506105956004803603602081101561057f57600080fd5b8101908080359060200190929190505050610e1f565b005b60036020528060005260406000206000915090508060010154908060020160009054906101000a900460ff16905082565b600160009054906101000a900473ffffffffffffffffffffffffffffffffffffffff1681565b7f79bc0d72c4aa20909eca837a71dfe3d843661baaa8c8ac3208731beb42c8ead76002600083815260200190815260200160002060000160009054906101000a900460ff16604051808215151515815260200191505060405180910390a150565b60048181548110151561065e57fe5b906000526020600020016000915090505481565b600061067c61103c565b60006003600085815260200190815260200160002060020160009054906101000a900460ff16151561073c576040517f08c379a00000000000000000000000000000000000000000000000000000000081526004018080602001828103825260228152602001807f57696e6e696e67206e756d62657273206e6f742079657420617661696c61626c81526020017f652e00000000000000000000000000000000000000000000000000000000000081525060400191505060405180910390fd5b83600360008681526020019081526020016000206000016003600087815260200190815260200160002060010154816006806020026040519081016040528092919082600680156107c8576020028201916000905b82829054906101000a900460ff1660ff16815260200190600101906020826000010492830192600103820291508084116107915790505b505050505091509250925092509193909250565b60006002600083815260200190815260200160002060000160009054906101000a900460ff16151515610877576040517f08c379a00000000000000000000000000000000000000000000000000000000081526004018080602001828103825260138152602001807f42657420616c726561647920706f737465642e0000000000000000000000000081525060200191505060405180910390fd5b60016002600084815260200190815260200160002060000160006101000a81548160ff02191690831515021790555060006002600084815260200190815260200160002060000160016101000a81548160ff0219169083151502179055507f79bc0d72c4aa20909eca837a71dfe3d843661baaa8c8ac3208731beb42c8ead76002600084815260200190815260200160002060000160009054906101000a900460ff16604051808215151515815260200191505060405180910390a1819050919050565b6000809054906101000a900473ffffffffffffffffffffffffffffffffffffffff1681565b3373ffffffffffffffffffffffffffffffffffffffff16600160009054906101000a900473ffffffffffffffffffffffffffffffffffffffff1673ffffffffffffffffffffffffffffffffffffffff161415156109bc57600080fd5b6003600084815260200190815260200160002060020160009054906101000a900460ff16151515610a55576040517f08c379a00000000000000000000000000000000000000000000000000000000081526004018080602001828103825260178152602001807f57696e6e65727320616c726561647920706f737465642e00000000000000000081525060200191505060405180910390fd5b8160036000858152602001908152602001600020600001906006610a7a92919061105f565b5080600360008581526020019081526020016000206001018190555060016003600085815260200190815260200160002060020160006101000a81548160ff0219169083151502179055506004839080600181540180825580915050906001820390600052602060002001600090919290919091505550827f0a866ec50fc19d3a14163c8dd9cab03a559d5866220924abd5e3047bd26b85ac83836040518083600660200280828437600081840152601f19601f8201169050808301925050508281526020019250505060405180910390a2505050565b60026020528060005260406000206000915090508060000160009054906101000a900460ff16908060000160019054906101000a900460ff16905082565b3373ffffffffffffffffffffffffffffffffffffffff166000809054906101000a900473ffffffffffffffffffffffffffffffffffffffff1673ffffffffffffffffffffffffffffffffffffffff16141515610bea57600080fd5b806000806101000a81548173ffffffffffffffffffffffffffffffffffffffff021916908373ffffffffffffffffffffffffffffffffffffffff16021790555050565b60006060600480549050600480805480602002602001604051908101604052809291908181526020018280548015610c8457602002820191906000526020600020905b815481526020019060010190808311610c70575b50505050509050915091509091565b3373ffffffffffffffffffffffffffffffffffffffff16600160009054906101000a900473ffffffffffffffffffffffffffffffffffffffff1673ffffffffffffffffffffffffffffffffffffffff16141515610cef57600080fd5b80600160006101000a81548173ffffffffffffffffffffffffffffffffffffffff021916908373ffffffffffffffffffffffffffffffffffffffff16021790555050565b6000806002600084815260200190815260200160002060000160009054906101000a900460ff161515610dce576040517f08c379a00000000000000000000000000000000000000000000000000000000081526004018080602001828103825260138152602001807f426574206e6f742079657420706f737465642e0000000000000000000000000081525060200191505060405180910390fd5b6002600084815260200190815260200160002060000160009054906101000a900460ff166002600085815260200190815260200160002060000160019054906101000a900460ff1691509150915091565b3373ffffffffffffffffffffffffffffffffffffffff16600160009054906101000a900473ffffffffffffffffffffffffffffffffffffffff1673ffffffffffffffffffffffffffffffffffffffff16141515610e7b57600080fd5b6002600082815260200190815260200160002060000160009054906101000a900460ff161515610f13576040517f08c379a00000000000000000000000000000000000000000000000000000000081526004018080602001828103825260148152602001807f426574206973206e6f74206578697374696e672e00000000000000000000000081525060200191505060405180910390fd5b6002600082815260200190815260200160002060000160019054906101000a900460ff16151515610fac576040517f08c379a00000000000000000000000000000000000000000000000000000000081526004018080602001828103825260188152602001807f57696e6e696e677320616c726561647920636c61696d6564000000000000000081525060200191505060405180910390fd5b60016002600083815260200190815260200160002060000160016101000a81548160ff0219169083151502179055507f5e540da4d7c1b62cc394357318d97c58afa8d4121adf901800766bec5c6c037a6002600083815260200190815260200160002060000160019054906101000a900460ff16604051808215151515815260200191505060405180910390a150565b60c060405190810160405280600690602082028038833980820191505090505090565b826006601f016020900481019282156110eb5791602002820160005b838211156110bc57833560ff1683826101000a81548160ff021916908360ff160217905550926020019260010160208160000104928301926001030261107b565b80156110e95782816101000a81549060ff02191690556001016020816000010492830192600103026110bc565b505b5090506110f891906110fc565b5090565b61112991905b8082111561112557600081816101000a81549060ff021916905550600101611102565b5090565b9056fea165627a7a7230582010d8fd66777f636cd873963e3056fe55c9d2610f45d754975f12df4f3e4c2e600029",
  "source": "//2020.01.29\r\n\r\n\r\npragma solidity 0.5.0;\r\n\r\n\r\ncontract eTaya {\r\n    // purpose is to add a layer of security by creating an immutable history of:\r\n    // (1) all bets made via the system; (2) all winning numbers and prized; (3) whether winnings have been claimed\r\n    // utilized by admin to check veracity of claims\r\n    // utilized by user to check winning numbers\r\n\r\n    address public owner;\r\n    address public verifier;\r\n\r\n    constructor() public {\r\n        owner = msg.sender;\r\n        verifier = msg.sender;\r\n        WinnersDB[20200101] = winners([1,2,3,4,5,6],8648391,true);\r\n        winningDates.push(20200101);\r\n        \r\n    }\r\n    \r\n    modifier isOwner() { \r\n        require (owner == msg.sender);\r\n         _;\r\n    }\r\n\r\n    modifier isVerifier() { \r\n        require (verifier == msg.sender);\r\n         _;\r\n    }\r\n\r\n    function changeVerifier(address _verifier) external isVerifier{\r\n        verifier = _verifier;\r\n    }\r\n\r\n    function changeOwner(address _owner) external isOwner{\r\n        owner = _owner;\r\n    }\r\n\r\n    struct bet {\r\n        bool isExisting;\r\n        bool isClaimed;\r\n    }\r\n\r\n    // creates mapping of transaction hash to bet status\r\n    // costs 25663 gas if queried by contract\r\n    mapping (bytes32 => bet) public BetsDB; \r\n//    mapping (bytes32 => bet) public BetsDB;\r\n\r\n    event BetExisting(bool isExisting);\r\n        \r\n    // checks status of Bet\r\n    // costs 26717 gas when called from contract\r\n    function getBetStatus(bytes32 _txnHash) public view returns(bool, bool) {\r\n//    function getBet(bytes32 _txnHash) public view returns(bytes32, bool, bool) {\r\n        \r\n        //check if entry already in BetsDB\r\n        require(BetsDB[_txnHash].isExisting, \"Bet not yet posted.\");\r\n\r\n        return(\r\n            BetsDB[_txnHash].isExisting,\r\n            BetsDB[_txnHash].isClaimed\r\n            );\r\n    }\r\n\r\n    // posts transaction hash to chain; maps to whether it claimed or not\r\n    // inputs from app\r\n    // emit event that bet has been posted\r\n    // cost 47534 gas\r\n    function newBet(bytes32 _txnHash) external returns(bytes32) {\r\n\r\n        //to prevent multiple posting, first check if bet is already posted\r\n        //check if entry already in BetsDB\r\n        require(!BetsDB[_txnHash].isExisting, \"Bet already posted.\");\r\n\r\n        //post the bet \r\n        BetsDB[_txnHash].isExisting = true;\r\n        BetsDB[_txnHash].isClaimed = false;\r\n\r\n        //emit event true\r\n        emit BetExisting(BetsDB[_txnHash].isExisting);\r\n        \r\n        //return _txnHash\r\n        return(_txnHash);\r\n    }    \r\n    \r\n    event Claimed(bool isClaimed);\r\n    \r\n\r\n    // called by verifier to check whether claimant's bet is valid\r\n    function verifyClaim(bytes32 _txnHash) external {\r\n//        require(BetsDB[_txnHash].isExisting, \"Bet is not existing.\");\r\n        emit BetExisting(BetsDB[_txnHash].isExisting);\r\n    }\r\n\r\n    // function to update whether winning bet has been claimed\r\n    // identifying winning _txnHash to be carried out by frontend\r\n    // function should only be called by PCSO verification app\r\n    // function emits event to frontend that winnings have been claimed\r\n    // costs 33819 gas\r\n    function claimedWinnings(bytes32 _txnHash) external isVerifier {\r\n        /* user presents QR code to PCSO; PCSO generates txnHash and passes it on to function\r\n        function checks whether bet is valid (ie posted in blockchain) and whether \r\n        winnings have not yet claimed (ie isClaimed = false)\r\n        when both tests have passed; function updates status to isClaimed = true */\r\n\r\n        //check if entry already in BetsDB\r\n        require(BetsDB[_txnHash].isExisting, \"Bet is not existing.\");\r\n\r\n        // should only be updated if not yet claimed\r\n        require(!BetsDB[_txnHash].isClaimed, \"Winnings already claimed\");\r\n    \r\n        BetsDB[_txnHash].isClaimed = true;\r\n        \r\n        emit Claimed(BetsDB[_txnHash].isClaimed);\r\n    }\r\n    \r\n\r\n    struct winners {\r\n        uint8[6] winningNumbers;\r\n        uint prize;\r\n        bool isExisting;\r\n    }\r\n    \r\n    // since only 1 draw per day, we use the date as the key for the WinnersDB mapping\r\n    mapping (uint => winners) public WinnersDB;\r\n\r\n    // list of all dates with winning numbers posted\r\n    uint[] public winningDates;\r\n\r\n    function getLength() public view returns(uint, uint[] memory) {\r\n        return(winningDates.length,\r\n                winningDates);\r\n    }\r\n   \r\n    \r\n    event WinnersPosted(\r\n        uint indexed _drawdate,\r\n        uint8[6] _winners,\r\n        uint _prize\r\n        );\r\n\r\n    // posts winning numbers to chain\r\n    // trigger an event that frontend watches\r\n    // costs 145435 gas\r\n    function postWinners(uint _drawdate, uint8[6] calldata _winners, uint _prize) external isVerifier {\r\n        // check if winners already posted\r\n        require(!WinnersDB[_drawdate].isExisting, \"Winners already posted.\");\r\n        \r\n        //post winners\r\n        WinnersDB[_drawdate].winningNumbers = _winners;\r\n        WinnersDB[_drawdate].prize = _prize;\r\n        WinnersDB[_drawdate].isExisting = true;\r\n        \r\n        // add date to winningDates array\r\n        winningDates.push(_drawdate);\r\n        \r\n        emit WinnersPosted(_drawdate, _winners, _prize);\r\n    }\r\n    \r\n    // get winning numbers and prize for a specific drawdate\r\n    // costs 30632 gas when called by a contract\r\n    function getWinners(uint _drawdate) public view returns(uint, uint8[6] memory, uint) {\r\n        \r\n        // check if already posted\r\n        require(WinnersDB[_drawdate].isExisting, \"Winning numbers not yet available.\");\r\n        \r\n        // return numbers\r\n        return(\r\n            _drawdate,\r\n            WinnersDB[_drawdate].winningNumbers,\r\n            WinnersDB[_drawdate].prize\r\n            );\r\n    }\r\n}",
  "sourcePath": "C:/Users/angel/etaya/src/contracts/eTaya.sol",
  "compiler": {
    "name": "solc",
    "version": "0.5.0+commit.1d4f565a.Emscripten.clang"
  },
  "schemaVersion": "3.0.2",
  "updatedAt": "2020-01-29T16:09:08.210Z",
  "devdoc": {
    "methods": {}
  },
  "userdoc": {
    "methods": {}
  }
}