{
  "contractName": "eTaya",
  "abi": [
    {
      "constant": true,
      "inputs": [
        {
          "name": "",
          "type": "uint256"
        }
      ],
      "name": "WinnersDB",
      "outputs": [
        {
          "name": "prize",
          "type": "uint256"
        },
        {
          "name": "isExisting",
          "type": "bool"
        }
      ],
      "payable": false,
      "stateMutability": "view",
      "type": "function"
    },
    {
      "constant": true,
      "inputs": [],
      "name": "verifier",
      "outputs": [
        {
          "name": "",
          "type": "address"
        }
      ],
      "payable": false,
      "stateMutability": "view",
      "type": "function"
    },
    {
      "constant": true,
      "inputs": [
        {
          "name": "",
          "type": "uint256"
        }
      ],
      "name": "winningDates",
      "outputs": [
        {
          "name": "",
          "type": "uint256"
        }
      ],
      "payable": false,
      "stateMutability": "view",
      "type": "function"
    },
    {
      "constant": true,
      "inputs": [],
      "name": "owner",
      "outputs": [
        {
          "name": "",
          "type": "address"
        }
      ],
      "payable": false,
      "stateMutability": "view",
      "type": "function"
    },
    {
      "constant": true,
      "inputs": [
        {
          "name": "",
          "type": "bytes32"
        }
      ],
      "name": "BetsDB",
      "outputs": [
        {
          "name": "isExisting",
          "type": "bool"
        },
        {
          "name": "isClaimed",
          "type": "bool"
        }
      ],
      "payable": false,
      "stateMutability": "view",
      "type": "function"
    },
    {
      "constant": true,
      "inputs": [
        {
          "name": "",
          "type": "bytes32"
        }
      ],
      "name": "UserDB",
      "outputs": [
        {
          "name": "",
          "type": "bool"
        }
      ],
      "payable": false,
      "stateMutability": "view",
      "type": "function"
    },
    {
      "inputs": [],
      "payable": false,
      "stateMutability": "nonpayable",
      "type": "constructor"
    },
    {
      "anonymous": false,
      "inputs": [
        {
          "indexed": false,
          "name": "userExisting",
          "type": "bool"
        }
      ],
      "name": "UserExisting",
      "type": "event"
    },
    {
      "anonymous": false,
      "inputs": [
        {
          "indexed": false,
          "name": "isExisting",
          "type": "bool"
        }
      ],
      "name": "BetExisting",
      "type": "event"
    },
    {
      "anonymous": false,
      "inputs": [
        {
          "indexed": false,
          "name": "isClaimed",
          "type": "bool"
        }
      ],
      "name": "Claimed",
      "type": "event"
    },
    {
      "anonymous": false,
      "inputs": [
        {
          "indexed": true,
          "name": "_drawdate",
          "type": "uint256"
        },
        {
          "indexed": false,
          "name": "_winners",
          "type": "uint8[6]"
        },
        {
          "indexed": false,
          "name": "_prize",
          "type": "uint256"
        }
      ],
      "name": "WinnersPosted",
      "type": "event"
    },
    {
      "constant": false,
      "inputs": [
        {
          "name": "_verifier",
          "type": "address"
        }
      ],
      "name": "changeVerifier",
      "outputs": [],
      "payable": false,
      "stateMutability": "nonpayable",
      "type": "function"
    },
    {
      "constant": false,
      "inputs": [
        {
          "name": "_owner",
          "type": "address"
        }
      ],
      "name": "changeOwner",
      "outputs": [],
      "payable": false,
      "stateMutability": "nonpayable",
      "type": "function"
    },
    {
      "constant": true,
      "inputs": [
        {
          "name": "userID",
          "type": "bytes32"
        }
      ],
      "name": "checkUser",
      "outputs": [
        {
          "name": "",
          "type": "bool"
        }
      ],
      "payable": false,
      "stateMutability": "view",
      "type": "function"
    },
    {
      "constant": false,
      "inputs": [
        {
          "name": "userID",
          "type": "bytes32"
        }
      ],
      "name": "newUser",
      "outputs": [
        {
          "name": "",
          "type": "bool"
        }
      ],
      "payable": false,
      "stateMutability": "nonpayable",
      "type": "function"
    },
    {
      "constant": true,
      "inputs": [
        {
          "name": "_txnHash",
          "type": "bytes32"
        }
      ],
      "name": "getBetStatus",
      "outputs": [
        {
          "name": "",
          "type": "bool"
        },
        {
          "name": "",
          "type": "bool"
        }
      ],
      "payable": false,
      "stateMutability": "view",
      "type": "function"
    },
    {
      "constant": false,
      "inputs": [
        {
          "name": "_txnHash",
          "type": "bytes32"
        }
      ],
      "name": "newBet",
      "outputs": [
        {
          "name": "",
          "type": "bytes32"
        }
      ],
      "payable": false,
      "stateMutability": "nonpayable",
      "type": "function"
    },
    {
      "constant": false,
      "inputs": [
        {
          "name": "_txnHash",
          "type": "bytes32"
        }
      ],
      "name": "verifyClaim",
      "outputs": [],
      "payable": false,
      "stateMutability": "nonpayable",
      "type": "function"
    },
    {
      "constant": false,
      "inputs": [
        {
          "name": "_txnHash",
          "type": "bytes32"
        }
      ],
      "name": "claimedWinnings",
      "outputs": [],
      "payable": false,
      "stateMutability": "nonpayable",
      "type": "function"
    },
    {
      "constant": true,
      "inputs": [],
      "name": "getLength",
      "outputs": [
        {
          "name": "",
          "type": "uint256"
        },
        {
          "name": "",
          "type": "uint256[]"
        }
      ],
      "payable": false,
      "stateMutability": "view",
      "type": "function"
    },
    {
      "constant": false,
      "inputs": [
        {
          "name": "_drawdate",
          "type": "uint256"
        },
        {
          "name": "_winners",
          "type": "uint8[6]"
        },
        {
          "name": "_prize",
          "type": "uint256"
        }
      ],
      "name": "postWinners",
      "outputs": [],
      "payable": false,
      "stateMutability": "nonpayable",
      "type": "function"
    },
    {
      "constant": true,
      "inputs": [
        {
          "name": "_drawdate",
          "type": "uint256"
        }
      ],
      "name": "getWinners",
      "outputs": [
        {
          "name": "",
          "type": "uint256"
        },
        {
          "name": "",
          "type": "uint8[6]"
        },
        {
          "name": "",
          "type": "uint256"
        }
      ],
      "payable": false,
      "stateMutability": "view",
      "type": "function"
    }
  ],
  "bytecode": "0x60806040523480156200001157600080fd5b50336000806101000a81548173ffffffffffffffffffffffffffffffffffffffff021916908373ffffffffffffffffffffffffffffffffffffffff16021790555033600160006101000a81548173ffffffffffffffffffffffffffffffffffffffff021916908373ffffffffffffffffffffffffffffffffffffffff16021790555060606040519081016040528060c060405190810160405280600160ff168152602001600260ff168152602001600360ff168152602001600460ff168152602001600560ff168152602001600660ff1681525081526020016283f6c7815260200160011515815250600460006301343aa581526020019081526020016000206000820151816000019060066200012a9291906200018e565b506020820151816001015560408201518160020160006101000a81548160ff02191690831515021790555090505060056301343aa5908060018154018082558091505090600182039060005260206000200160009091929091909150555062000262565b826006601f016020900481019282156200021c5791602002820160005b83821115620001eb57835183826101000a81548160ff021916908360ff1602179055509260200192600101602081600001049283019260010302620001ab565b80156200021a5782816101000a81549060ff0219169055600101602081600001049283019260010302620001eb565b505b5090506200022b91906200022f565b5090565b6200025f91905b808211156200025b57600081816101000a81549060ff02191690555060010162000236565b5090565b90565b6113c580620002726000396000f3fe6080604052600436106100f1576000357c0100000000000000000000000000000000000000000000000000000000900463ffffffff168063034e5465146100f65780630b2551c2146101505780632b7ac3f3146101a357806335b73510146101fa57806358dbe0ff146102355780636b1426a414610284578063805cbb02146103095780638da5cb5b146103585780639f3173f3146103af578063a3c38927146103ff578063a6f9dae11461045d578063be1c766b146104ae578063cf04fb9414610521578063e880a4ff14610572578063f2c6b76e146105d0578063f845862f14610623578063fbb195ef14610676575b600080fd5b34801561010257600080fd5b5061012f6004803603602081101561011957600080fd5b81019080803590602001909291905050506106b1565b60405180838152602001821515151581526020019250505060405180910390f35b34801561015c57600080fd5b506101896004803603602081101561017357600080fd5b81019080803590602001909291905050506106e2565b604051808215151515815260200191505060405180910390f35b3480156101af57600080fd5b506101b861070c565b604051808273ffffffffffffffffffffffffffffffffffffffff1673ffffffffffffffffffffffffffffffffffffffff16815260200191505060405180910390f35b34801561020657600080fd5b506102336004803603602081101561021d57600080fd5b8101908080359060200190929190505050610732565b005b34801561024157600080fd5b5061026e6004803603602081101561025857600080fd5b8101908080359060200190929190505050610793565b6040518082815260200191505060405180910390f35b34801561029057600080fd5b506102bd600480360360208110156102a757600080fd5b81019080803590602001909291905050506107b6565b6040518084815260200183600660200280838360005b838110156102ee5780820151818401526020810190506102d3565b50505050905001828152602001935050505060405180910390f35b34801561031557600080fd5b506103426004803603602081101561032c57600080fd5b8101908080359060200190929190505050610920565b6040518082815260200191505060405180910390f35b34801561036457600080fd5b5061036d610a7f565b604051808273ffffffffffffffffffffffffffffffffffffffff1673ffffffffffffffffffffffffffffffffffffffff16815260200191505060405180910390f35b3480156103bb57600080fd5b506103fd60048036036101008110156103d357600080fd5b81019080803590602001909291908060c00190919291929080359060200190929190505050610aa4565b005b34801561040b57600080fd5b506104386004803603602081101561042257600080fd5b8101908080359060200190929190505050610c95565b6040518083151515158152602001821515151581526020019250505060405180910390f35b34801561046957600080fd5b506104ac6004803603602081101561048057600080fd5b81019080803573ffffffffffffffffffffffffffffffffffffffff169060200190929190505050610cd3565b005b3480156104ba57600080fd5b506104c3610d71565b6040518083815260200180602001828103825283818151815260200191508051906020019060200280838360005b8381101561050c5780820151818401526020810190506104f1565b50505050905001935050505060405180910390f35b34801561052d57600080fd5b506105706004803603602081101561054457600080fd5b81019080803573ffffffffffffffffffffffffffffffffffffffff169060200190929190505050610dd7565b005b34801561057e57600080fd5b506105ab6004803603602081101561059557600080fd5b8101908080359060200190929190505050610e77565b6040518083151515158152602001821515151581526020019250505060405180910390f35b3480156105dc57600080fd5b50610609600480360360208110156105f357600080fd5b8101908080359060200190929190505050610f63565b604051808215151515815260200191505060405180910390f35b34801561062f57600080fd5b5061065c6004803603602081101561064657600080fd5b8101908080359060200190929190505050610f83565b604051808215151515815260200191505060405180910390f35b34801561068257600080fd5b506106af6004803603602081101561069957600080fd5b810190808035906020019092919050505061108c565b005b60046020528060005260406000206000915090508060010154908060020160009054906101000a900460ff16905082565b60006002600083815260200190815260200160002060009054906101000a900460ff169050919050565b600160009054906101000a900473ffffffffffffffffffffffffffffffffffffffff1681565b7f79bc0d72c4aa20909eca837a71dfe3d843661baaa8c8ac3208731beb42c8ead76003600083815260200190815260200160002060000160009054906101000a900460ff16604051808215151515815260200191505060405180910390a150565b6005818154811015156107a257fe5b906000526020600020016000915090505481565b60006107c06112a9565b60006004600085815260200190815260200160002060020160009054906101000a900460ff161515610880576040517f08c379a00000000000000000000000000000000000000000000000000000000081526004018080602001828103825260228152602001807f57696e6e696e67206e756d62657273206e6f742079657420617661696c61626c81526020017f652e00000000000000000000000000000000000000000000000000000000000081525060400191505060405180910390fd5b836004600086815260200190815260200160002060000160046000878152602001908152602001600020600101548160068060200260405190810160405280929190826006801561090c576020028201916000905b82829054906101000a900460ff1660ff16815260200190600101906020826000010492830192600103820291508084116108d55790505b505050505091509250925092509193909250565b60006003600083815260200190815260200160002060000160009054906101000a900460ff161515156109bb576040517f08c379a00000000000000000000000000000000000000000000000000000000081526004018080602001828103825260138152602001807f42657420616c726561647920706f737465642e0000000000000000000000000081525060200191505060405180910390fd5b60016003600084815260200190815260200160002060000160006101000a81548160ff02191690831515021790555060006003600084815260200190815260200160002060000160016101000a81548160ff0219169083151502179055507f79bc0d72c4aa20909eca837a71dfe3d843661baaa8c8ac3208731beb42c8ead76003600084815260200190815260200160002060000160009054906101000a900460ff16604051808215151515815260200191505060405180910390a1819050919050565b6000809054906101000a900473ffffffffffffffffffffffffffffffffffffffff1681565b3373ffffffffffffffffffffffffffffffffffffffff16600160009054906101000a900473ffffffffffffffffffffffffffffffffffffffff1673ffffffffffffffffffffffffffffffffffffffff16141515610b0057600080fd5b6004600084815260200190815260200160002060020160009054906101000a900460ff16151515610b99576040517f08c379a00000000000000000000000000000000000000000000000000000000081526004018080602001828103825260178152602001807f57696e6e65727320616c726561647920706f737465642e00000000000000000081525060200191505060405180910390fd5b8160046000858152602001908152602001600020600001906006610bbe9291906112cc565b5080600460008581526020019081526020016000206001018190555060016004600085815260200190815260200160002060020160006101000a81548160ff0219169083151502179055506005839080600181540180825580915050906001820390600052602060002001600090919290919091505550827f0a866ec50fc19d3a14163c8dd9cab03a559d5866220924abd5e3047bd26b85ac83836040518083600660200280828437600081840152601f19601f8201169050808301925050508281526020019250505060405180910390a2505050565b60036020528060005260406000206000915090508060000160009054906101000a900460ff16908060000160019054906101000a900460ff16905082565b3373ffffffffffffffffffffffffffffffffffffffff166000809054906101000a900473ffffffffffffffffffffffffffffffffffffffff1673ffffffffffffffffffffffffffffffffffffffff16141515610d2e57600080fd5b806000806101000a81548173ffffffffffffffffffffffffffffffffffffffff021916908373ffffffffffffffffffffffffffffffffffffffff16021790555050565b60006060600580549050600580805480602002602001604051908101604052809291908181526020018280548015610dc857602002820191906000526020600020905b815481526020019060010190808311610db4575b50505050509050915091509091565b3373ffffffffffffffffffffffffffffffffffffffff16600160009054906101000a900473ffffffffffffffffffffffffffffffffffffffff1673ffffffffffffffffffffffffffffffffffffffff16141515610e3357600080fd5b80600160006101000a81548173ffffffffffffffffffffffffffffffffffffffff021916908373ffffffffffffffffffffffffffffffffffffffff16021790555050565b6000806003600084815260200190815260200160002060000160009054906101000a900460ff161515610f12576040517f08c379a00000000000000000000000000000000000000000000000000000000081526004018080602001828103825260138152602001807f426574206e6f742079657420706f737465642e0000000000000000000000000081525060200191505060405180910390fd5b6003600084815260200190815260200160002060000160009054906101000a900460ff166003600085815260200190815260200160002060000160019054906101000a900460ff1691509150915091565b60026020528060005260406000206000915054906101000a900460ff1681565b60006002600083815260200190815260200160002060009054906101000a900460ff1615151561101b576040517f08c379a00000000000000000000000000000000000000000000000000000000081526004018080602001828103825260168152602001807f5573657220616c7265616479206578697374696e672e0000000000000000000081525060200191505060405180910390fd5b60016002600084815260200190815260200160002060006101000a81548160ff0219169083151502179055507f39a62696d7c570f5cf08a3ba2d2aee1f1ca1a29b4bf5551a44abd2755676b7ba6001604051808215151515815260200191505060405180910390a160019050919050565b3373ffffffffffffffffffffffffffffffffffffffff16600160009054906101000a900473ffffffffffffffffffffffffffffffffffffffff1673ffffffffffffffffffffffffffffffffffffffff161415156110e857600080fd5b6003600082815260200190815260200160002060000160009054906101000a900460ff161515611180576040517f08c379a00000000000000000000000000000000000000000000000000000000081526004018080602001828103825260148152602001807f426574206973206e6f74206578697374696e672e00000000000000000000000081525060200191505060405180910390fd5b6003600082815260200190815260200160002060000160019054906101000a900460ff16151515611219576040517f08c379a00000000000000000000000000000000000000000000000000000000081526004018080602001828103825260188152602001807f57696e6e696e677320616c726561647920636c61696d6564000000000000000081525060200191505060405180910390fd5b60016003600083815260200190815260200160002060000160016101000a81548160ff0219169083151502179055507f5e540da4d7c1b62cc394357318d97c58afa8d4121adf901800766bec5c6c037a6003600083815260200190815260200160002060000160019054906101000a900460ff16604051808215151515815260200191505060405180910390a150565b60c060405190810160405280600690602082028038833980820191505090505090565b826006601f016020900481019282156113585791602002820160005b8382111561132957833560ff1683826101000a81548160ff021916908360ff16021790555092602001926001016020816000010492830192600103026112e8565b80156113565782816101000a81549060ff0219169055600101602081600001049283019260010302611329565b505b5090506113659190611369565b5090565b61139691905b8082111561139257600081816101000a81549060ff02191690555060010161136f565b5090565b9056fea165627a7a72305820f283ea3a2c00424181669dda9e469c83a11b78deb179e9e0fc4f19887e42445c0029",
  "source": "//2020.01.30\r\n\r\n\r\npragma solidity 0.5.0;\r\n\r\n\r\ncontract eTaya {\r\n    // purpose is to add a layer of security by creating an immutable history of:\r\n    // (1) all bets made via the system; (2) all winning numbers and prized; (3) whether winnings have been claimed\r\n    // utilized by admin to check veracity of claims\r\n    // utilized by user to check winning numbers\r\n\r\n    address public owner;\r\n    address public verifier;\r\n\r\n    constructor() public {\r\n        owner = msg.sender;\r\n        verifier = msg.sender;\r\n        WinnersDB[20200101] = winners([1,2,3,4,5,6],8648391,true);\r\n        winningDates.push(20200101);\r\n        \r\n    }\r\n    \r\n    modifier isOwner() { \r\n        require (owner == msg.sender);\r\n         _;\r\n    }\r\n\r\n    modifier isVerifier() { \r\n        require (verifier == msg.sender);\r\n         _;\r\n    }\r\n\r\n    function changeVerifier(address _verifier) external isVerifier{\r\n        verifier = _verifier;\r\n    }\r\n\r\n    function changeOwner(address _owner) external isOwner{\r\n        owner = _owner;\r\n    }\r\n\r\n    struct bet {\r\n        bool isExisting;\r\n        bool isClaimed;\r\n    }\r\n\r\n    // posts and verifies userID\r\n    bool userExisting;\r\n    mapping (bytes32 => bool) public UserDB; \r\n    event UserExisting(bool userExisting);\r\n\r\n    function checkUser(bytes32 userID) external view returns(bool) {\r\n        return UserDB[userID];\r\n    }\r\n\r\n    function newUser(bytes32 userID) external returns(bool) {\r\n        //check if entry already in BetsDB\r\n        require(!UserDB[userID], \"User already existing.\");\r\n\r\n        //post the user \r\n        UserDB[userID] = true;\r\n\r\n        //emit event true\r\n        emit UserExisting(true);\r\n        \r\n        //return _txnHash\r\n        return(true);\r\n    }    \r\n\r\n    // creates mapping of transaction hash to bet status\r\n    // costs 25663 gas if queried by contract\r\n    mapping (bytes32 => bet) public BetsDB; \r\n//    mapping (bytes32 => bet) public BetsDB;\r\n\r\n    event BetExisting(bool isExisting);\r\n        \r\n    // checks status of Bet\r\n    // costs 26717 gas when called from contract\r\n    function getBetStatus(bytes32 _txnHash) public view returns(bool, bool) {\r\n//    function getBet(bytes32 _txnHash) public view returns(bytes32, bool, bool) {\r\n        \r\n        //check if entry already in BetsDB\r\n        require(BetsDB[_txnHash].isExisting, \"Bet not yet posted.\");\r\n\r\n        return(\r\n            BetsDB[_txnHash].isExisting,\r\n            BetsDB[_txnHash].isClaimed\r\n            );\r\n    }\r\n\r\n    // posts transaction hash to chain; maps to whether it claimed or not\r\n    // inputs from app\r\n    // emit event that bet has been posted\r\n    // cost 47534 gas\r\n    function newBet(bytes32 _txnHash) external returns(bytes32) {\r\n\r\n        //to prevent multiple posting, first check if bet is already posted\r\n        //check if entry already in BetsDB\r\n        require(!BetsDB[_txnHash].isExisting, \"Bet already posted.\");\r\n\r\n        //post the bet \r\n        BetsDB[_txnHash].isExisting = true;\r\n        BetsDB[_txnHash].isClaimed = false;\r\n\r\n        //emit event true\r\n        emit BetExisting(BetsDB[_txnHash].isExisting);\r\n        \r\n        //return _txnHash\r\n        return(_txnHash);\r\n    }    \r\n    \r\n    event Claimed(bool isClaimed);\r\n    \r\n\r\n    // called by verifier to check whether claimant's bet is valid\r\n    function verifyClaim(bytes32 _txnHash) external {\r\n//        require(BetsDB[_txnHash].isExisting, \"Bet is not existing.\");\r\n        emit BetExisting(BetsDB[_txnHash].isExisting);\r\n    }\r\n\r\n    // function to update whether winning bet has been claimed\r\n    // identifying winning _txnHash to be carried out by frontend\r\n    // function should only be called by PCSO verification app\r\n    // function emits event to frontend that winnings have been claimed\r\n    // costs 33819 gas\r\n    function claimedWinnings(bytes32 _txnHash) external isVerifier {\r\n        /* user presents QR code to PCSO; PCSO generates txnHash and passes it on to function\r\n        function checks whether bet is valid (ie posted in blockchain) and whether \r\n        winnings have not yet claimed (ie isClaimed = false)\r\n        when both tests have passed; function updates status to isClaimed = true */\r\n\r\n        //check if entry already in BetsDB\r\n        require(BetsDB[_txnHash].isExisting, \"Bet is not existing.\");\r\n\r\n        // should only be updated if not yet claimed\r\n        require(!BetsDB[_txnHash].isClaimed, \"Winnings already claimed\");\r\n    \r\n        BetsDB[_txnHash].isClaimed = true;\r\n        \r\n        emit Claimed(BetsDB[_txnHash].isClaimed);\r\n    }\r\n    \r\n\r\n    struct winners {\r\n        uint8[6] winningNumbers;\r\n        uint prize;\r\n        bool isExisting;\r\n    }\r\n    \r\n    // since only 1 draw per day, we use the date as the key for the WinnersDB mapping\r\n    mapping (uint => winners) public WinnersDB;\r\n\r\n    // list of all dates with winning numbers posted\r\n    uint[] public winningDates;\r\n\r\n    function getLength() public view returns(uint, uint[] memory) {\r\n        return(winningDates.length,\r\n                winningDates);\r\n    }\r\n   \r\n    \r\n    event WinnersPosted(\r\n        uint indexed _drawdate,\r\n        uint8[6] _winners,\r\n        uint _prize\r\n        );\r\n\r\n    // posts winning numbers to chain\r\n    // trigger an event that frontend watches\r\n    // costs 145435 gas\r\n    function postWinners(uint _drawdate, uint8[6] calldata _winners, uint _prize) external isVerifier {\r\n        // check if winners already posted\r\n        require(!WinnersDB[_drawdate].isExisting, \"Winners already posted.\");\r\n        \r\n        //post winners\r\n        WinnersDB[_drawdate].winningNumbers = _winners;\r\n        WinnersDB[_drawdate].prize = _prize;\r\n        WinnersDB[_drawdate].isExisting = true;\r\n        \r\n        // add date to winningDates array\r\n        winningDates.push(_drawdate);\r\n        \r\n        emit WinnersPosted(_drawdate, _winners, _prize);\r\n    }\r\n    \r\n    // get winning numbers and prize for a specific drawdate\r\n    // costs 30632 gas when called by a contract\r\n    function getWinners(uint _drawdate) public view returns(uint, uint8[6] memory, uint) {\r\n        \r\n        // check if already posted\r\n        require(WinnersDB[_drawdate].isExisting, \"Winning numbers not yet available.\");\r\n        \r\n        // return numbers\r\n        return(\r\n            _drawdate,\r\n            WinnersDB[_drawdate].winningNumbers,\r\n            WinnersDB[_drawdate].prize\r\n            );\r\n    }\r\n}",
  "sourcePath": "C:/Users/angel/etaya/src/contracts/eTaya.sol",
  "compiler": {
    "name": "solc",
    "version": "0.5.0+commit.1d4f565a.Emscripten.clang"
  },
  "schemaVersion": "3.0.2",
  "updatedAt": "2020-01-30T01:47:33.094Z",
  "devdoc": {
    "methods": {}
  },
  "userdoc": {
    "methods": {}
  }
}